{
  "contractName": "DisasterAid",
  "abi": [
    {
      "constant": true,
      "inputs": [
        {
          "name": "",
          "type": "uint256"
        }
      ],
      "name": "donators",
      "outputs": [
        {
          "name": "",
          "type": "address"
        }
      ],
      "payable": false,
      "stateMutability": "view",
      "type": "function"
    },
    {
      "inputs": [
        {
          "name": "receiverId",
          "type": "uint256"
        }
      ],
      "payable": false,
      "stateMutability": "nonpayable",
      "type": "constructor"
    },
    {
      "constant": true,
      "inputs": [],
      "name": "getDonators",
      "outputs": [
        {
          "name": "",
          "type": "address[16]"
        }
      ],
      "payable": false,
      "stateMutability": "view",
      "type": "function"
    }
  ],
  "bytecode": "0x6060604052341561000f57600080fd5b6040516020806102b0833981016040528080519060200190919050503360008260108110151561003b57fe5b0160006101000a81548173ffffffffffffffffffffffffffffffffffffffff021916908373ffffffffffffffffffffffffffffffffffffffff160217905550506102268061008a6000396000f30060606040526004361061004c576000357c0100000000000000000000000000000000000000000000000000000000900463ffffffff168063ac62f56614610051578063bf1482fa146100b4575b600080fd5b341561005c57600080fd5b6100726004808035906020019091905050610105565b604051808273ffffffffffffffffffffffffffffffffffffffff1673ffffffffffffffffffffffffffffffffffffffff16815260200191505060405180910390f35b34156100bf57600080fd5b6100c761013a565b6040518082601060200280838360005b838110156100f25780820151818401526020810190506100d7565b5050505090500191505060405180910390f35b60008160108110151561011457fe5b016000915054906101000a900473ffffffffffffffffffffffffffffffffffffffff1681565b6101426101bb565b60006010806020026040519081016040528092919082601080156101b1576020028201915b8160009054906101000a900473ffffffffffffffffffffffffffffffffffffffff1673ffffffffffffffffffffffffffffffffffffffff1681526020019060010190808311610167575b5050505050905090565b610200604051908101604052806010905b600073ffffffffffffffffffffffffffffffffffffffff168152602001906001900390816101cc57905050905600a165627a7a7230582057d8b8858eeb015eae0909f491879be69f7ed994d9ce0959c56fd049c210a4990029",
  "source": "pragma solidity ^0.4.17; // Version of Solidity compiler to be used\n\ncontract DisasterAid {\n  address[16] public donators;\n\n  /* This is the constructor which will be called once when the contract \n   * is deployed to the blockchain. When the contract is deployed we\n   * pass in an array of people that are potentially in need \n   */\n  //function DisasterAid(uint receiverId) public returns (uint) {\n  function DisasterAid(uint receiverId) {\n    donators[receiverId] = msg.sender;\n\n    //return receiverId;\n  }\n\n  // Retrieving the donators\n  function getDonators() public view returns (address[16]) {\n    return donators;\n  }\n\n}",
  "sourcePath": "/home/annavigdis/Documents/school/aid-smart-contract/contracts/DisasterAid.sol",
  "compiler": {
    "name": "solc",
    "version": "0.4.19+commit.c4cbbb05.Emscripten.clang"
  },
  "schemaVersion": "1.0.1",
  "updatedAt": "2018-03-15T23:29:57.131Z"
}