{
  "contractName": "Donation",
  "abi": [
    {
      "constant": true,
      "inputs": [
        {
          "name": "",
          "type": "uint256"
        }
      ],
      "name": "donators",
      "outputs": [
        {
          "name": "",
          "type": "address"
        }
      ],
      "payable": false,
      "stateMutability": "view",
      "type": "function"
    },
    {
      "constant": false,
      "inputs": [
        {
          "name": "receiverId",
          "type": "uint256"
        }
      ],
      "name": "donation",
      "outputs": [
        {
          "name": "",
          "type": "uint256"
        }
      ],
      "payable": false,
      "stateMutability": "nonpayable",
      "type": "function"
    },
    {
      "constant": true,
      "inputs": [],
      "name": "getDonators",
      "outputs": [
        {
          "name": "",
          "type": "address[16]"
        }
      ],
      "payable": false,
      "stateMutability": "view",
      "type": "function"
    }
  ],
  "bytecode": "0x6060604052341561000f57600080fd5b6102be8061001e6000396000f300606060405260043610610057576000357c0100000000000000000000000000000000000000000000000000000000900463ffffffff168063ac62f5661461005c578063bf1482fa146100bf578063fdac325414610110575b600080fd5b341561006757600080fd5b61007d6004808035906020019091905050610147565b604051808273ffffffffffffffffffffffffffffffffffffffff1673ffffffffffffffffffffffffffffffffffffffff16815260200191505060405180910390f35b34156100ca57600080fd5b6100d261017c565b6040518082601060200280838360005b838110156100fd5780820151818401526020810190506100e2565b5050505090500191505060405180910390f35b341561011b57600080fd5b61013160048080359060200190919050506101fd565b6040518082815260200191505060405180910390f35b60008160108110151561015657fe5b016000915054906101000a900473ffffffffffffffffffffffffffffffffffffffff1681565b610184610253565b60006010806020026040519081016040528092919082601080156101f3576020028201915b8160009054906101000a900473ffffffffffffffffffffffffffffffffffffffff1673ffffffffffffffffffffffffffffffffffffffff16815260200190600101908083116101a9575b5050505050905090565b60003360008360108110151561020f57fe5b0160006101000a81548173ffffffffffffffffffffffffffffffffffffffff021916908373ffffffffffffffffffffffffffffffffffffffff160217905550919050565b610200604051908101604052806010905b600073ffffffffffffffffffffffffffffffffffffffff1681526020019060019003908161026457905050905600a165627a7a723058206466764070cd27ca5cdd7279c09e8bb553d4f152d6816c355c6dad687f2696f80029",
  "source": "pragma solidity ^0.4.17; // Version of Solidity compiler to be used\n\ncontract Donation {\n  address[16] public donators;\n\n  /* This is the constructor which will be called once when the contract \n   * is deployed to the blockchain. When the contract is deployed we\n   * pass in an array of people that are potentially in need \n   */\n  function donation(uint receiverId) public returns (uint) {\n    donators[receiverId] = msg.sender;\n\n    //return receiverId;\n  }\n\n  // Retrieving the donators\n  function getDonators() public view returns (address[16]) {\n    return donators;\n  }\n\n}",
  "sourcePath": "/home/annavigdis/Documents/school/aid-smart-contract/contracts/Donation.sol",
  "compiler": {
    "name": "solc",
    "version": "0.4.19+commit.c4cbbb05.Emscripten.clang"
  },
  "schemaVersion": "1.0.1",
  "updatedAt": "2018-03-15T23:39:07.098Z"
}