{
  "contractName": "RefundVault",
  "abi": [
    {
      "constant": true,
      "inputs": [],
      "name": "wallet",
      "outputs": [
        {
          "name": "",
          "type": "address"
        }
      ],
      "payable": false,
      "stateMutability": "view",
      "type": "function"
    },
    {
      "constant": true,
      "inputs": [],
      "name": "owner",
      "outputs": [
        {
          "name": "",
          "type": "address"
        }
      ],
      "payable": false,
      "stateMutability": "view",
      "type": "function"
    },
    {
      "constant": true,
      "inputs": [],
      "name": "state",
      "outputs": [
        {
          "name": "",
          "type": "uint8"
        }
      ],
      "payable": false,
      "stateMutability": "view",
      "type": "function"
    },
    {
      "constant": true,
      "inputs": [
        {
          "name": "",
          "type": "address"
        }
      ],
      "name": "deposited",
      "outputs": [
        {
          "name": "",
          "type": "uint256"
        }
      ],
      "payable": false,
      "stateMutability": "view",
      "type": "function"
    },
    {
      "constant": false,
      "inputs": [
        {
          "name": "newOwner",
          "type": "address"
        }
      ],
      "name": "transferOwnership",
      "outputs": [],
      "payable": false,
      "stateMutability": "nonpayable",
      "type": "function"
    },
    {
      "inputs": [
        {
          "name": "_wallet",
          "type": "address"
        }
      ],
      "payable": false,
      "stateMutability": "nonpayable",
      "type": "constructor"
    },
    {
      "anonymous": false,
      "inputs": [],
      "name": "Closed",
      "type": "event"
    },
    {
      "anonymous": false,
      "inputs": [],
      "name": "RefundsEnabled",
      "type": "event"
    },
    {
      "anonymous": false,
      "inputs": [
        {
          "indexed": true,
          "name": "beneficiary",
          "type": "address"
        },
        {
          "indexed": false,
          "name": "weiAmount",
          "type": "uint256"
        }
      ],
      "name": "Refunded",
      "type": "event"
    },
    {
      "anonymous": false,
      "inputs": [
        {
          "indexed": true,
          "name": "previousOwner",
          "type": "address"
        },
        {
          "indexed": true,
          "name": "newOwner",
          "type": "address"
        }
      ],
      "name": "OwnershipTransferred",
      "type": "event"
    },
    {
      "constant": false,
      "inputs": [
        {
          "name": "investor",
          "type": "address"
        }
      ],
      "name": "deposit",
      "outputs": [],
      "payable": true,
      "stateMutability": "payable",
      "type": "function"
    },
    {
      "constant": false,
      "inputs": [],
      "name": "payUpRvk",
      "outputs": [],
      "payable": false,
      "stateMutability": "nonpayable",
      "type": "function"
    },
    {
      "constant": false,
      "inputs": [],
      "name": "payUpAk",
      "outputs": [],
      "payable": false,
      "stateMutability": "nonpayable",
      "type": "function"
    },
    {
      "constant": false,
      "inputs": [],
      "name": "payUpIsa",
      "outputs": [],
      "payable": false,
      "stateMutability": "nonpayable",
      "type": "function"
    },
    {
      "constant": false,
      "inputs": [],
      "name": "payUpEgil",
      "outputs": [],
      "payable": false,
      "stateMutability": "nonpayable",
      "type": "function"
    },
    {
      "constant": false,
      "inputs": [],
      "name": "payUp",
      "outputs": [],
      "payable": false,
      "stateMutability": "nonpayable",
      "type": "function"
    },
    {
      "constant": false,
      "inputs": [],
      "name": "close",
      "outputs": [],
      "payable": false,
      "stateMutability": "nonpayable",
      "type": "function"
    },
    {
      "constant": false,
      "inputs": [],
      "name": "getVaultBal",
      "outputs": [
        {
          "name": "",
          "type": "uint256"
        }
      ],
      "payable": false,
      "stateMutability": "nonpayable",
      "type": "function"
    },
    {
      "constant": false,
      "inputs": [],
      "name": "enableRefunds",
      "outputs": [],
      "payable": false,
      "stateMutability": "nonpayable",
      "type": "function"
    },
    {
      "constant": false,
      "inputs": [
        {
          "name": "investor",
          "type": "address"
        }
      ],
      "name": "refund",
      "outputs": [],
      "payable": false,
      "stateMutability": "nonpayable",
      "type": "function"
    }
  ],
  "bytecode": "0x608060405273f17f52151ebef6c7334fad080c5704d77216b732600360006101000a81548173ffffffffffffffffffffffffffffffffffffffff021916908373ffffffffffffffffffffffffffffffffffffffff16021790555073c5fdf4076b8f3a5357c5e395ab970b5b54098fef600460006101000a81548173ffffffffffffffffffffffffffffffffffffffff021916908373ffffffffffffffffffffffffffffffffffffffff16021790555073821aea9a577a9b44299b9c15c88cf3087f3b5544600560006101000a81548173ffffffffffffffffffffffffffffffffffffffff021916908373ffffffffffffffffffffffffffffffffffffffff160217905550730d1d4e623d10f9fba5db95830f7d3839406c6af2600660006101000a81548173ffffffffffffffffffffffffffffffffffffffff021916908373ffffffffffffffffffffffffffffffffffffffff16021790555034801561016457600080fd5b506040516020806110db83398101806040528101908080519060200190929190505050336000806101000a81548173ffffffffffffffffffffffffffffffffffffffff021916908373ffffffffffffffffffffffffffffffffffffffff160217905550600273ffffffffffffffffffffffffffffffffffffffff168173ffffffffffffffffffffffffffffffffffffffff161415151561020357600080fd5b80600260006101000a81548173ffffffffffffffffffffffffffffffffffffffff021916908373ffffffffffffffffffffffffffffffffffffffff1602179055506000600660146101000a81548160ff0219169083600281111561026357fe5b021790555050610e63806102786000396000f3006080604052600436106100db576000357c0100000000000000000000000000000000000000000000000000000000900463ffffffff1680632e9dc69a146100e057806343d726d6146100f7578063521eb2731461010e5780638c52dc41146101655780638da5cb5b1461017c578063a3045113146101d3578063a72718b3146101ea578063c19d93fb14610201578063cb13cddb1461023a578063e0ce11b414610291578063f2fde38b146102a8578063f340fa01146102eb578063fa89401a14610321578063feb1565b14610364578063ffc14ad81461037b575b600080fd5b3480156100ec57600080fd5b506100f56103a6565b005b34801561010357600080fd5b5061010c61046b565b005b34801561011a57600080fd5b506101236105cc565b604051808273ffffffffffffffffffffffffffffffffffffffff1673ffffffffffffffffffffffffffffffffffffffff16815260200191505060405180910390f35b34801561017157600080fd5b5061017a6105f2565b005b34801561018857600080fd5b506101916106d3565b604051808273ffffffffffffffffffffffffffffffffffffffff1673ffffffffffffffffffffffffffffffffffffffff16815260200191505060405180910390f35b3480156101df57600080fd5b506101e86106f8565b005b3480156101f657600080fd5b506101ff6107ae565b005b34801561020d57600080fd5b50610216610873565b6040518082600281111561022657fe5b60ff16815260200191505060405180910390f35b34801561024657600080fd5b5061027b600480360381019080803573ffffffffffffffffffffffffffffffffffffffff169060200190929190505050610886565b6040518082815260200191505060405180910390f35b34801561029d57600080fd5b506102a661089e565b005b3480156102b457600080fd5b506102e9600480360381019080803573ffffffffffffffffffffffffffffffffffffffff169060200190929190505050610963565b005b61031f600480360381019080803573ffffffffffffffffffffffffffffffffffffffff169060200190929190505050610ab8565b005b34801561032d57600080fd5b50610362600480360381019080803573ffffffffffffffffffffffffffffffffffffffff169060200190929190505050610bdf565b005b34801561037057600080fd5b50610379610d35565b005b34801561038757600080fd5b50610390610dfa565b6040518082815260200191505060405180910390f35b600060028111156103b357fe5b600660149054906101000a900460ff1660028111156103ce57fe5b1415156103da57600080fd5b600460009054906101000a900473ffffffffffffffffffffffffffffffffffffffff1673ffffffffffffffffffffffffffffffffffffffff166108fc600860023073ffffffffffffffffffffffffffffffffffffffff16310281151561043c57fe5b049081150290604051600060405180830381858888f19350505050158015610468573d6000803e3d6000fd5b50565b6000809054906101000a900473ffffffffffffffffffffffffffffffffffffffff1673ffffffffffffffffffffffffffffffffffffffff163373ffffffffffffffffffffffffffffffffffffffff161415156104c657600080fd5b600060028111156104d357fe5b600660149054906101000a900460ff1660028111156104ee57fe5b1415156104fa57600080fd5b6002600660146101000a81548160ff0219169083600281111561051957fe5b02179055507f1cdde67b72a90f19919ac732a437ac2f7a10fc128d28c2a6e525d89ce5cd9d3a60405160405180910390a1600260009054906101000a900473ffffffffffffffffffffffffffffffffffffffff1673ffffffffffffffffffffffffffffffffffffffff166108fc3073ffffffffffffffffffffffffffffffffffffffff16319081150290604051600060405180830381858888f193505050501580156105c9573d6000803e3d6000fd5b50565b600260009054906101000a900473ffffffffffffffffffffffffffffffffffffffff1681565b6000809054906101000a900473ffffffffffffffffffffffffffffffffffffffff1673ffffffffffffffffffffffffffffffffffffffff163373ffffffffffffffffffffffffffffffffffffffff1614151561064d57600080fd5b6000600281111561065a57fe5b600660149054906101000a900460ff16600281111561067557fe5b14151561068157600080fd5b6001600660146101000a81548160ff021916908360028111156106a057fe5b02179055507f599d8e5a83cffb867d051598c4d70e805d59802d8081c1c7d6dffc5b6aca2b8960405160405180910390a1565b6000809054906101000a900473ffffffffffffffffffffffffffffffffffffffff1681565b6000600281111561070557fe5b600660149054906101000a900460ff16600281111561072057fe5b14151561072c57600080fd5b600260009054906101000a900473ffffffffffffffffffffffffffffffffffffffff1673ffffffffffffffffffffffffffffffffffffffff166108fc3073ffffffffffffffffffffffffffffffffffffffff16319081150290604051600060405180830381858888f193505050501580156107ab573d6000803e3d6000fd5b50565b600060028111156107bb57fe5b600660149054906101000a900460ff1660028111156107d657fe5b1415156107e257600080fd5b600360009054906101000a900473ffffffffffffffffffffffffffffffffffffffff1673ffffffffffffffffffffffffffffffffffffffff166108fc600860023073ffffffffffffffffffffffffffffffffffffffff16310281151561084457fe5b049081150290604051600060405180830381858888f19350505050158015610870573d6000803e3d6000fd5b50565b600660149054906101000a900460ff1681565b60016020528060005260406000206000915090505481565b600060028111156108ab57fe5b600660149054906101000a900460ff1660028111156108c657fe5b1415156108d257600080fd5b600560009054906101000a900473ffffffffffffffffffffffffffffffffffffffff1673ffffffffffffffffffffffffffffffffffffffff166108fc600860023073ffffffffffffffffffffffffffffffffffffffff16310281151561093457fe5b049081150290604051600060405180830381858888f19350505050158015610960573d6000803e3d6000fd5b50565b6000809054906101000a900473ffffffffffffffffffffffffffffffffffffffff1673ffffffffffffffffffffffffffffffffffffffff163373ffffffffffffffffffffffffffffffffffffffff161415156109be57600080fd5b600073ffffffffffffffffffffffffffffffffffffffff168173ffffffffffffffffffffffffffffffffffffffff16141515156109fa57600080fd5b8073ffffffffffffffffffffffffffffffffffffffff166000809054906101000a900473ffffffffffffffffffffffffffffffffffffffff1673ffffffffffffffffffffffffffffffffffffffff167f8be0079c531659141344cd1fd0a4f28419497f9722a3daafe3b4186f6b6457e060405160405180910390a3806000806101000a81548173ffffffffffffffffffffffffffffffffffffffff021916908373ffffffffffffffffffffffffffffffffffffffff16021790555050565b6000809054906101000a900473ffffffffffffffffffffffffffffffffffffffff1673ffffffffffffffffffffffffffffffffffffffff163373ffffffffffffffffffffffffffffffffffffffff16141515610b1357600080fd5b60006002811115610b2057fe5b600660149054906101000a900460ff166002811115610b3b57fe5b141515610b4757600080fd5b610b9934600160008473ffffffffffffffffffffffffffffffffffffffff1673ffffffffffffffffffffffffffffffffffffffff16815260200190815260200160002054610e1990919063ffffffff16565b600160008373ffffffffffffffffffffffffffffffffffffffff1673ffffffffffffffffffffffffffffffffffffffff1681526020019081526020016000208190555050565b600060016002811115610bee57fe5b600660149054906101000a900460ff166002811115610c0957fe5b141515610c1557600080fd5b600160008373ffffffffffffffffffffffffffffffffffffffff1673ffffffffffffffffffffffffffffffffffffffff1681526020019081526020016000205490506000600160008473ffffffffffffffffffffffffffffffffffffffff1673ffffffffffffffffffffffffffffffffffffffff168152602001908152602001600020819055508173ffffffffffffffffffffffffffffffffffffffff166108fc829081150290604051600060405180830381858888f19350505050158015610ce2573d6000803e3d6000fd5b508173ffffffffffffffffffffffffffffffffffffffff167fd7dee2702d63ad89917b6a4da9981c90c4d24f8c2bdfd64c604ecae57d8d0651826040518082815260200191505060405180910390a25050565b60006002811115610d4257fe5b600660149054906101000a900460ff166002811115610d5d57fe5b141515610d6957600080fd5b600660009054906101000a900473ffffffffffffffffffffffffffffffffffffffff1673ffffffffffffffffffffffffffffffffffffffff166108fc600860023073ffffffffffffffffffffffffffffffffffffffff163102811515610dcb57fe5b049081150290604051600060405180830381858888f19350505050158015610df7573d6000803e3d6000fd5b50565b60003073ffffffffffffffffffffffffffffffffffffffff1631905090565b6000808284019050838110151515610e2d57fe5b80915050929150505600a165627a7a723058204b61d1bd387f68be4ffc73363916405e2abecb0b9e002dc87fa5cefa60d5e7210029",
  "source": "pragma solidity ^0.4.18;\r\n\r\nimport \"./SafeMath.sol\";\r\nimport \"./Ownable.sol\";\r\n\r\n\r\n/**\r\n * @title RefundVault\r\n * @dev This contract is used for storing funds while a crowdsale\r\n * is in progress. Supports refunding the money if crowdsale fails,\r\n * and forwarding it if crowdsale is successful.\r\n */\r\ncontract RefundVault is Ownable {\r\n  using SafeMath for uint256;\r\n\r\n  enum State { Active, Refunding, Closed }\r\n\r\n  mapping (address => uint256) public deposited;\r\n  address public wallet;\r\n  address _walletRVK = 0xf17f52151ebef6c7334fad080c5704d77216b732; // 1\r\n  address _walletAK = 0xc5fdf4076b8f3a5357c5e395ab970b5b54098fef; // 2\r\n  address _walletISA = 0x821aea9a577a9b44299b9c15c88cf3087f3b5544; // 3\r\n  address _walletEGIL = 0x0d1d4e623d10f9fba5db95830f7d3839406c6af2; // 4\r\n  // address _closingADDR = 0x5aeda56215b167893e80b4fe645ba6d5bab767de; // Address 9\r\n  State public state;\r\n\r\n\r\n  event Closed();\r\n  event RefundsEnabled();\r\n  event Refunded(address indexed beneficiary, uint256 weiAmount);\r\n\r\n  function RefundVault(address _wallet) public {\r\n    require(_wallet != address(2));\r\n    wallet = _wallet;\r\n    state = State.Active;\r\n  }\r\n\r\n  function deposit(address investor) onlyOwner public payable {\r\n    require(state == State.Active);\r\n    deposited[investor] = deposited[investor].add(msg.value);\r\n  }\r\n\r\n  /*function ethToWei(uint256 amount) returns (uint256)\r\n  {\r\n      return amount * 10^18;\r\n  }*/\r\n\r\n  function payUpRvk() public {\r\n    require(state == State.Active);\r\n    _walletRVK.transfer(this.balance*uint256(2)/uint256(8));\r\n  }\r\n\r\n  function payUpAk() public {\r\n    require(state == State.Active);\r\n    _walletAK.transfer(this.balance*uint256(2)/uint256(8));\r\n  }\r\n\r\n  function payUpIsa() public {\r\n    require(state == State.Active);\r\n    _walletISA.transfer(this.balance*uint256(2)/uint256(8));\r\n  }\r\n  \r\n  function payUpEgil() public {\r\n    require(state == State.Active);\r\n    _walletEGIL.transfer(this.balance*uint256(2)/uint256(8));\r\n  }      \r\n\r\n  function payUp() public {\r\n    require(state == State.Active);\r\n    wallet.transfer(this.balance);\r\n  }\r\n\r\n  function close() onlyOwner public {\r\n    require(state == State.Active);\r\n    state = State.Closed;\r\n    Closed();\r\n    wallet.transfer(this.balance);\r\n  }\r\n\r\n  function getVaultBal() public returns (uint256)\r\n  {\r\n    return this.balance;\r\n  }\r\n\r\n  function enableRefunds() onlyOwner public {\r\n    require(state == State.Active);\r\n    state = State.Refunding;\r\n    RefundsEnabled();\r\n  }\r\n\r\n  function refund(address investor) public {\r\n    require(state == State.Refunding);\r\n    uint256 depositedValue = deposited[investor];\r\n    deposited[investor] = 0;\r\n    investor.transfer(depositedValue);\r\n    Refunded(investor, depositedValue);\r\n  }\r\n}\r\n",
  "sourcePath": "C:\\Cryptocurrency\\aid-smart-contract\\contracts\\RefundVault.sol",
  "compiler": {
    "name": "solc",
    "version": "0.4.23+commit.124ca40d.Emscripten.clang"
  },
  "schemaVersion": "2.0.0",
  "updatedAt": "2018-05-15T22:31:37.919Z"
}