{
  "contractName": "SampleCrowdsale",
  "abi": [
    {
      "constant": true,
      "inputs": [],
      "name": "hasClosed",
      "outputs": [
        {
          "name": "",
          "type": "bool"
        }
      ],
      "payable": false,
      "stateMutability": "view",
      "type": "function"
    },
    {
      "constant": true,
      "inputs": [],
      "name": "rate",
      "outputs": [
        {
          "name": "",
          "type": "uint256"
        }
      ],
      "payable": false,
      "stateMutability": "view",
      "type": "function"
    },
    {
      "constant": true,
      "inputs": [],
      "name": "weiRaised",
      "outputs": [
        {
          "name": "",
          "type": "uint256"
        }
      ],
      "payable": false,
      "stateMutability": "view",
      "type": "function"
    },
    {
      "constant": true,
      "inputs": [],
      "name": "closingTime",
      "outputs": [
        {
          "name": "",
          "type": "uint256"
        }
      ],
      "payable": false,
      "stateMutability": "view",
      "type": "function"
    },
    {
      "constant": false,
      "inputs": [],
      "name": "finalize",
      "outputs": [],
      "payable": false,
      "stateMutability": "nonpayable",
      "type": "function"
    },
    {
      "constant": true,
      "inputs": [],
      "name": "wallet",
      "outputs": [
        {
          "name": "",
          "type": "address"
        }
      ],
      "payable": false,
      "stateMutability": "view",
      "type": "function"
    },
    {
      "constant": true,
      "inputs": [],
      "name": "isFinalized",
      "outputs": [
        {
          "name": "",
          "type": "bool"
        }
      ],
      "payable": false,
      "stateMutability": "view",
      "type": "function"
    },
    {
      "constant": true,
      "inputs": [],
      "name": "owner",
      "outputs": [
        {
          "name": "",
          "type": "address"
        }
      ],
      "payable": false,
      "stateMutability": "view",
      "type": "function"
    },
    {
      "constant": true,
      "inputs": [],
      "name": "openingTime",
      "outputs": [
        {
          "name": "",
          "type": "uint256"
        }
      ],
      "payable": false,
      "stateMutability": "view",
      "type": "function"
    },
    {
      "constant": true,
      "inputs": [],
      "name": "weatherInfoRvk",
      "outputs": [
        {
          "name": "",
          "type": "string"
        }
      ],
      "payable": false,
      "stateMutability": "view",
      "type": "function"
    },
    {
      "constant": false,
      "inputs": [
        {
          "name": "_beneficiary",
          "type": "address"
        }
      ],
      "name": "buyTokens",
      "outputs": [],
      "payable": true,
      "stateMutability": "payable",
      "type": "function"
    },
    {
      "constant": false,
      "inputs": [
        {
          "name": "newOwner",
          "type": "address"
        }
      ],
      "name": "transferOwnership",
      "outputs": [],
      "payable": false,
      "stateMutability": "nonpayable",
      "type": "function"
    },
    {
      "constant": true,
      "inputs": [],
      "name": "vault",
      "outputs": [
        {
          "name": "",
          "type": "address"
        }
      ],
      "payable": false,
      "stateMutability": "view",
      "type": "function"
    },
    {
      "constant": true,
      "inputs": [],
      "name": "token",
      "outputs": [
        {
          "name": "",
          "type": "address"
        }
      ],
      "payable": false,
      "stateMutability": "view",
      "type": "function"
    },
    {
      "inputs": [
        {
          "name": "_openingTime",
          "type": "uint256"
        },
        {
          "name": "_closingTime",
          "type": "uint256"
        },
        {
          "name": "_rate",
          "type": "uint256"
        },
        {
          "name": "_wallet",
          "type": "address"
        },
        {
          "name": "_token",
          "type": "address"
        }
      ],
      "payable": false,
      "stateMutability": "nonpayable",
      "type": "constructor"
    },
    {
      "payable": true,
      "stateMutability": "payable",
      "type": "fallback"
    },
    {
      "anonymous": false,
      "inputs": [
        {
          "indexed": false,
          "name": "description",
          "type": "string"
        }
      ],
      "name": "newOraclizeQuery",
      "type": "event"
    },
    {
      "anonymous": false,
      "inputs": [
        {
          "indexed": false,
          "name": "info",
          "type": "string"
        }
      ],
      "name": "newWeatherInfo",
      "type": "event"
    },
    {
      "anonymous": false,
      "inputs": [],
      "name": "Finalized",
      "type": "event"
    },
    {
      "anonymous": false,
      "inputs": [
        {
          "indexed": true,
          "name": "previousOwner",
          "type": "address"
        },
        {
          "indexed": true,
          "name": "newOwner",
          "type": "address"
        }
      ],
      "name": "OwnershipTransferred",
      "type": "event"
    },
    {
      "anonymous": false,
      "inputs": [
        {
          "indexed": true,
          "name": "purchaser",
          "type": "address"
        },
        {
          "indexed": true,
          "name": "beneficiary",
          "type": "address"
        },
        {
          "indexed": false,
          "name": "value",
          "type": "uint256"
        },
        {
          "indexed": false,
          "name": "amount",
          "type": "uint256"
        }
      ],
      "name": "TokenPurchase",
      "type": "event"
    },
    {
      "constant": false,
      "inputs": [
        {
          "name": "amount",
          "type": "uint256"
        }
      ],
      "name": "weiToEth",
      "outputs": [
        {
          "name": "",
          "type": "uint256"
        }
      ],
      "payable": false,
      "stateMutability": "nonpayable",
      "type": "function"
    },
    {
      "constant": false,
      "inputs": [],
      "name": "weatherReader",
      "outputs": [],
      "payable": false,
      "stateMutability": "nonpayable",
      "type": "function"
    },
    {
      "constant": false,
      "inputs": [
        {
          "name": "myid",
          "type": "bytes32"
        },
        {
          "name": "result",
          "type": "string"
        }
      ],
      "name": "__callback",
      "outputs": [],
      "payable": false,
      "stateMutability": "nonpayable",
      "type": "function"
    },
    {
      "constant": false,
      "inputs": [
        {
          "name": "myid",
          "type": "bytes32"
        },
        {
          "name": "result",
          "type": "string"
        },
        {
          "name": "proof",
          "type": "bytes"
        }
      ],
      "name": "__callback",
      "outputs": [],
      "payable": false,
      "stateMutability": "nonpayable",
      "type": "function"
    },
    {
      "constant": false,
      "inputs": [],
      "name": "update",
      "outputs": [],
      "payable": true,
      "stateMutability": "payable",
      "type": "function"
    }
  ],
  "bytecode": "0x60606040526000600660146101000a81548160ff02191690831515021790555073627306090abab3a6e1400e9345bc60c78a8bef57600c60006101000a81548173ffffffffffffffffffffffffffffffffffffffff021916908373ffffffffffffffffffffffffffffffffffffffff16021790555073f17f52151ebef6c7334fad080c5704d77216b732600d60006101000a81548173ffffffffffffffffffffffffffffffffffffffff021916908373ffffffffffffffffffffffffffffffffffffffff16021790555073c5fdf4076b8f3a5357c5e395ab970b5b54098fef600e60006101000a81548173ffffffffffffffffffffffffffffffffffffffff021916908373ffffffffffffffffffffffffffffffffffffffff16021790555073821aea9a577a9b44299b9c15c88cf3087f3b5544600f60006101000a81548173ffffffffffffffffffffffffffffffffffffffff021916908373ffffffffffffffffffffffffffffffffffffffff160217905550735aeda56215b167893e80b4fe645ba6d5bab767de601060006101000a81548173ffffffffffffffffffffffffffffffffffffffff021916908373ffffffffffffffffffffffffffffffffffffffff1602179055503415620001d457600080fd5b60405160a08062002dc28339810160405280805190602001909190805190602001909190805190602001909190805190602001909190805190602001909190505084848484846000831115156200022a57600080fd5b600073ffffffffffffffffffffffffffffffffffffffff168273ffffffffffffffffffffffffffffffffffffffff16141515156200026757600080fd5b600073ffffffffffffffffffffffffffffffffffffffff168173ffffffffffffffffffffffffffffffffffffffff1614151515620002a457600080fd5b8260028190555081600160006101000a81548173ffffffffffffffffffffffffffffffffffffffff021916908373ffffffffffffffffffffffffffffffffffffffff160217905550806000806101000a81548173ffffffffffffffffffffffffffffffffffffffff021916908373ffffffffffffffffffffffffffffffffffffffff1602179055505050504282101515156200033f57600080fd5b8181101515156200034f57600080fd5b8160048190555080600581905550505033600660006101000a81548173ffffffffffffffffffffffffffffffffffffffff021916908373ffffffffffffffffffffffffffffffffffffffff160217905550601060009054906101000a900473ffffffffffffffffffffffffffffffffffffffff16620003cd62000465565b808273ffffffffffffffffffffffffffffffffffffffff1673ffffffffffffffffffffffffffffffffffffffff168152602001915050604051809103906000f08015156200041a57600080fd5b601260006101000a81548173ffffffffffffffffffffffffffffffffffffffff021916908373ffffffffffffffffffffffffffffffffffffffff160217905550505050505062000476565b604051610789806200263983390190565b6121b380620004866000396000f300606060405260043610610107576000357c0100000000000000000000000000000000000000000000000000000000900463ffffffff1680631515bc2b1461011257806327dc297e1461013f5780632c4e722e146101a957806338bbfa50146101d25780634042b66f1461027f5780634b6753bc146102a85780634bb278f3146102d1578063521eb273146102e65780638d4e40831461033b5780638da5cb5b14610368578063a2e62045146103bd578063b7a8807c146103c7578063d77d041c146103f0578063e54b586d1461047e578063ec8ac4d814610493578063f2fde38b146104c1578063f99a910c146104fa578063fbfa77cf14610531578063fc0c546a14610586575b610110336105db565b005b341561011d57600080fd5b6101256106a9565b604051808215151515815260200191505060405180910390f35b341561014a57600080fd5b6101a760048080356000191690602001909190803590602001908201803590602001908080601f016020809104026020016040519081016040528093929190818152602001838380828437820191505050505050919050506106b5565b005b34156101b457600080fd5b6101bc61095c565b6040518082815260200191505060405180910390f35b34156101dd57600080fd5b61027d60048080356000191690602001909190803590602001908201803590602001908080601f0160208091040260200160405190810160405280939291908181526020018383808284378201915050505050509190803590602001908201803590602001908080601f01602080910402602001604051908101604052809392919081815260200183838082843782019150505050505091905050610962565b005b341561028a57600080fd5b610292610967565b6040518082815260200191505060405180910390f35b34156102b357600080fd5b6102bb61096d565b6040518082815260200191505060405180910390f35b34156102dc57600080fd5b6102e4610973565b005b34156102f157600080fd5b6102f9610a4f565b604051808273ffffffffffffffffffffffffffffffffffffffff1673ffffffffffffffffffffffffffffffffffffffff16815260200191505060405180910390f35b341561034657600080fd5b61034e610a75565b604051808215151515815260200191505060405180910390f35b341561037357600080fd5b61037b610a88565b604051808273ffffffffffffffffffffffffffffffffffffffff1673ffffffffffffffffffffffffffffffffffffffff16815260200191505060405180910390f35b6103c5610aae565b005b34156103d257600080fd5b6103da610bdc565b6040518082815260200191505060405180910390f35b34156103fb57600080fd5b610403610be2565b6040518080602001828103825283818151815260200191508051906020019080838360005b83811015610443578082015181840152602081019050610428565b50505050905090810190601f1680156104705780820380516001836020036101000a031916815260200191505b509250505060405180910390f35b341561048957600080fd5b610491610c80565b005b6104bf600480803573ffffffffffffffffffffffffffffffffffffffff169060200190919050506105db565b005b34156104cc57600080fd5b6104f8600480803573ffffffffffffffffffffffffffffffffffffffff16906020019091905050610c8a565b005b341561050557600080fd5b61051b6004808035906020019091905050610de2565b6040518082815260200191505060405180910390f35b341561053c57600080fd5b610544610df2565b604051808273ffffffffffffffffffffffffffffffffffffffff1673ffffffffffffffffffffffffffffffffffffffff16815260200191505060405180910390f35b341561059157600080fd5b610599610e18565b604051808273ffffffffffffffffffffffffffffffffffffffff1673ffffffffffffffffffffffffffffffffffffffff16815260200191505060405180910390f35b6000803491506105eb8383610e3d565b6105f482610e6a565b905061060b82600354610e8890919063ffffffff16565b60038190555061061b8382610ea6565b8273ffffffffffffffffffffffffffffffffffffffff163373ffffffffffffffffffffffffffffffffffffffff167f623b3804fa71d67900d064613da8f94b9617215ee90799290593e1745087ad188484604051808381526020018281526020019250505060405180910390a36106928383610eb4565b61069a610eb8565b6106a48383610f1c565b505050565b60006005544211905090565b6106bd610f20565b73ffffffffffffffffffffffffffffffffffffffff163373ffffffffffffffffffffffffffffffffffffffff161415156106f657600080fd5b7ffb74d2abae525278c79124f40ce710c5f4d6eba73c07789b0b5615d4bc184a8f816040518080602001828103825283818151815260200191508051906020019080838360005b8381101561075857808201518184015260208101905061073d565b50505050905090810190601f1680156107855780820380516001836020036101000a031916815260200191505b509250505060405180910390a180601190805190602001906107a89291906120ce565b50600a61084e60118054600181600116156101000203166002900480601f0160208091040260200160405190810160405280929190818152602001828054600181600116156101000203166002900480156108445780601f1061081957610100808354040283529160200191610844565b820191906000526020600020905b81548152906001019060200180831161082757829003601f168201915b505050505061123a565b111561095857601260009054906101000a900473ffffffffffffffffffffffffffffffffffffffff1673ffffffffffffffffffffffffffffffffffffffff16630221038a600c60009054906101000a900473ffffffffffffffffffffffffffffffffffffffff166108bf6001610de2565b6040518363ffffffff167c0100000000000000000000000000000000000000000000000000000000028152600401808373ffffffffffffffffffffffffffffffffffffffff1673ffffffffffffffffffffffffffffffffffffffff16815260200182815260200192505050600060405180830381600087803b151561094357600080fd5b6102c65a03f1151561095457600080fd5b5050505b5050565b60025481565b505050565b60035481565b60055481565b600660009054906101000a900473ffffffffffffffffffffffffffffffffffffffff1673ffffffffffffffffffffffffffffffffffffffff163373ffffffffffffffffffffffffffffffffffffffff161415156109cf57600080fd5b600660149054906101000a900460ff161515156109eb57600080fd5b6109f36106a9565b15156109fe57600080fd5b610a0661124e565b7f6823b073d48d6e3a7d385eeb601452d680e74bb46afe3255a7d778f3a9b1768160405160405180910390a16001600660146101000a81548160ff021916908315150217905550565b600160009054906101000a900473ffffffffffffffffffffffffffffffffffffffff1681565b600660149054906101000a900460ff1681565b600660009054906101000a900473ffffffffffffffffffffffffffffffffffffffff1681565b7f46cb989ef9cef13e930e3b7f286225a086e716a90d63e0b7da85d310a9db0c9a6040518080602001828103825260358152602001807f4f7261636c697a65207175657279207761732073656e742c207374616e64696e81526020017f6720627920666f722074686520616e737765722e2e000000000000000000000081525060400191505060405180910390a1610bd9603c6040805190810160405280600381526020017f55524c0000000000000000000000000000000000000000000000000000000000815250606060405190810160405280602e81526020017f6a736f6e28687474703a2f2f6c6f63616c686f73743a383038312f696e666f2e81526020017f6a736f6e2e726573756c74732e46000000000000000000000000000000000000815250611250565b50565b60045481565b60118054600181600116156101000203166002900480601f016020809104026020016040519081016040528092919081815260200182805460018160011615610100020316600290048015610c785780601f10610c4d57610100808354040283529160200191610c78565b820191906000526020600020905b815481529060010190602001808311610c5b57829003601f168201915b505050505081565b610c88610aae565b565b600660009054906101000a900473ffffffffffffffffffffffffffffffffffffffff1673ffffffffffffffffffffffffffffffffffffffff163373ffffffffffffffffffffffffffffffffffffffff16141515610ce657600080fd5b600073ffffffffffffffffffffffffffffffffffffffff168173ffffffffffffffffffffffffffffffffffffffff1614151515610d2257600080fd5b8073ffffffffffffffffffffffffffffffffffffffff16600660009054906101000a900473ffffffffffffffffffffffffffffffffffffffff1673ffffffffffffffffffffffffffffffffffffffff167f8be0079c531659141344cd1fd0a4f28419497f9722a3daafe3b4186f6b6457e060405160405180910390a380600660006101000a81548173ffffffffffffffffffffffffffffffffffffffff021916908373ffffffffffffffffffffffffffffffffffffffff16021790555050565b60006012600a8302189050919050565b601260009054906101000a900473ffffffffffffffffffffffffffffffffffffffff1681565b6000809054906101000a900473ffffffffffffffffffffffffffffffffffffffff1681565b6004544210158015610e5157506005544211155b1515610e5c57600080fd5b610e668282611796565b5050565b6000610e81600254836117e690919063ffffffff16565b9050919050565b6000808284019050838110151515610e9c57fe5b8091505092915050565b610eb08282611821565b5050565b5050565b600160009054906101000a900473ffffffffffffffffffffffffffffffffffffffff1673ffffffffffffffffffffffffffffffffffffffff166108fc349081150290604051600060405180830381858888f193505050501515610f1a57600080fd5b565b5050565b600080600760009054906101000a900473ffffffffffffffffffffffffffffffffffffffff1673ffffffffffffffffffffffffffffffffffffffff161480610f9257506000610f90600760009054906101000a900473ffffffffffffffffffffffffffffffffffffffff16611917565b145b15610fa357610fa16000611922565b505b600760009054906101000a900473ffffffffffffffffffffffffffffffffffffffff1673ffffffffffffffffffffffffffffffffffffffff166338cc48316000604051602001526040518163ffffffff167c0100000000000000000000000000000000000000000000000000000000028152600401602060405180830381600087803b151561103157600080fd5b6102c65a03f1151561104257600080fd5b5050506040518051905073ffffffffffffffffffffffffffffffffffffffff16600860009054906101000a900473ffffffffffffffffffffffffffffffffffffffff1673ffffffffffffffffffffffffffffffffffffffff1614151561118c57600760009054906101000a900473ffffffffffffffffffffffffffffffffffffffff1673ffffffffffffffffffffffffffffffffffffffff166338cc48316000604051602001526040518163ffffffff167c0100000000000000000000000000000000000000000000000000000000028152600401602060405180830381600087803b151561113057600080fd5b6102c65a03f1151561114157600080fd5b50505060405180519050600860006101000a81548173ffffffffffffffffffffffffffffffffffffffff021916908373ffffffffffffffffffffffffffffffffffffffff1602179055505b600860009054906101000a900473ffffffffffffffffffffffffffffffffffffffff1673ffffffffffffffffffffffffffffffffffffffff1663c281d19e6000604051602001526040518163ffffffff167c0100000000000000000000000000000000000000000000000000000000028152600401602060405180830381600087803b151561121a57600080fd5b6102c65a03f1151561122b57600080fd5b50505060405180519050905090565b6000611247826000611dba565b9050919050565b565b6000806000600760009054906101000a900473ffffffffffffffffffffffffffffffffffffffff1673ffffffffffffffffffffffffffffffffffffffff1614806112c4575060006112c2600760009054906101000a900473ffffffffffffffffffffffffffffffffffffffff16611917565b145b156112d5576112d36000611922565b505b600760009054906101000a900473ffffffffffffffffffffffffffffffffffffffff1673ffffffffffffffffffffffffffffffffffffffff166338cc48316000604051602001526040518163ffffffff167c0100000000000000000000000000000000000000000000000000000000028152600401602060405180830381600087803b151561136357600080fd5b6102c65a03f1151561137457600080fd5b5050506040518051905073ffffffffffffffffffffffffffffffffffffffff16600860009054906101000a900473ffffffffffffffffffffffffffffffffffffffff1673ffffffffffffffffffffffffffffffffffffffff161415156114be57600760009054906101000a900473ffffffffffffffffffffffffffffffffffffffff1673ffffffffffffffffffffffffffffffffffffffff166338cc48316000604051602001526040518163ffffffff167c0100000000000000000000000000000000000000000000000000000000028152600401602060405180830381600087803b151561146257600080fd5b6102c65a03f1151561147357600080fd5b50505060405180519050600860006101000a81548173ffffffffffffffffffffffffffffffffffffffff021916908373ffffffffffffffffffffffffffffffffffffffff1602179055505b600860009054906101000a900473ffffffffffffffffffffffffffffffffffffffff1673ffffffffffffffffffffffffffffffffffffffff1663524f3889856000604051602001526040518263ffffffff167c01000000000000000000000000000000000000000000000000000000000281526004018080602001828103825283818151815260200191508051906020019080838360005b83811015611571578082015181840152602081019050611556565b50505050905090810190601f16801561159e5780820380516001836020036101000a031916815260200191505b5092505050602060405180830381600087803b15156115bc57600080fd5b6102c65a03f115156115cd57600080fd5b50505060405180519050905062030d403a02670de0b6b3a7640000018111156115fc576000600102915061178e565b600860009054906101000a900473ffffffffffffffffffffffffffffffffffffffff1673ffffffffffffffffffffffffffffffffffffffff1663adf59f99828787876000604051602001526040518563ffffffff167c0100000000000000000000000000000000000000000000000000000000028152600401808481526020018060200180602001838103835285818151815260200191508051906020019080838360005b838110156116bc5780820151818401526020810190506116a1565b50505050905090810190601f1680156116e95780820380516001836020036101000a031916815260200191505b50838103825284818151815260200191508051906020019080838360005b83811015611722578082015181840152602081019050611707565b50505050905090810190601f16801561174f5780820380516001836020036101000a031916815260200191505b50955050505050506020604051808303818588803b151561176f57600080fd5b6125ee5a03f1151561178057600080fd5b505050506040518051905091505b509392505050565b600073ffffffffffffffffffffffffffffffffffffffff168273ffffffffffffffffffffffffffffffffffffffff16141515156117d257600080fd5b600081141515156117e257600080fd5b5050565b60008060008414156117fb576000915061181a565b828402905082848281151561180c57fe5b0414151561181657fe5b8091505b5092915050565b6000809054906101000a900473ffffffffffffffffffffffffffffffffffffffff1673ffffffffffffffffffffffffffffffffffffffff166340c10f1983836000604051602001526040518363ffffffff167c0100000000000000000000000000000000000000000000000000000000028152600401808373ffffffffffffffffffffffffffffffffffffffff1673ffffffffffffffffffffffffffffffffffffffff16815260200182815260200192505050602060405180830381600087803b15156118ed57600080fd5b6102c65a03f115156118fe57600080fd5b50505060405180519050151561191357600080fd5b5050565b6000813b9050919050565b600080611942731d3b2638a7cc9f2cb3d298a3da7a90b67e5506ed611917565b11156119e457731d3b2638a7cc9f2cb3d298a3da7a90b67e5506ed600760006101000a81548173ffffffffffffffffffffffffffffffffffffffff021916908373ffffffffffffffffffffffffffffffffffffffff1602179055506119db6040805190810160405280600b81526020017f6574685f6d61696e6e65740000000000000000000000000000000000000000008152506120b4565b60019050611db5565b6000611a0373c03a2615d5efaf5f49f60b7bb6583eaec212fdf1611917565b1115611aa55773c03a2615d5efaf5f49f60b7bb6583eaec212fdf1600760006101000a81548173ffffffffffffffffffffffffffffffffffffffff021916908373ffffffffffffffffffffffffffffffffffffffff160217905550611a9c6040805190810160405280600c81526020017f6574685f726f707374656e3300000000000000000000000000000000000000008152506120b4565b60019050611db5565b6000611ac473b7a07bcf2ba2f2703b24c0691b5278999c59ac7e611917565b1115611b665773b7a07bcf2ba2f2703b24c0691b5278999c59ac7e600760006101000a81548173ffffffffffffffffffffffffffffffffffffffff021916908373ffffffffffffffffffffffffffffffffffffffff160217905550611b5d6040805190810160405280600981526020017f6574685f6b6f76616e00000000000000000000000000000000000000000000008152506120b4565b60019050611db5565b6000611b8573146500cfd35b22e4a392fe0adc06de1a1368ed48611917565b1115611c275773146500cfd35b22e4a392fe0adc06de1a1368ed48600760006101000a81548173ffffffffffffffffffffffffffffffffffffffff021916908373ffffffffffffffffffffffffffffffffffffffff160217905550611c1e6040805190810160405280600b81526020017f6574685f72696e6b6562790000000000000000000000000000000000000000008152506120b4565b60019050611db5565b6000611c46736f485c8bf6fc43ea212e93bbf8ce046c7f1cb475611917565b1115611caa57736f485c8bf6fc43ea212e93bbf8ce046c7f1cb475600760006101000a81548173ffffffffffffffffffffffffffffffffffffffff021916908373ffffffffffffffffffffffffffffffffffffffff16021790555060019050611db5565b6000611cc97320e12a1f859b3feae5fb2a0a32c18f5a65555bbf611917565b1115611d2d577320e12a1f859b3feae5fb2a0a32c18f5a65555bbf600760006101000a81548173ffffffffffffffffffffffffffffffffffffffff021916908373ffffffffffffffffffffffffffffffffffffffff16021790555060019050611db5565b6000611d4c7351efaf4c8b3c9afbd5ab9f4bbc82784ab6ef8faa611917565b1115611db0577351efaf4c8b3c9afbd5ab9f4bbc82784ab6ef8faa600760006101000a81548173ffffffffffffffffffffffffffffffffffffffff021916908373ffffffffffffffffffffffffffffffffffffffff16021790555060019050611db5565b600090505b919050565b6000611dc461214e565b60008060008693506000925060009150600090505b83518110156120955760307f0100000000000000000000000000000000000000000000000000000000000000028482815181101515611e1457fe5b9060200101517f010000000000000000000000000000000000000000000000000000000000000090047f0100000000000000000000000000000000000000000000000000000000000000027effffffffffffffffffffffffffffffffffffffffffffffffffffffffffffff191610158015611f2c575060397f0100000000000000000000000000000000000000000000000000000000000000028482815181101515611ebc57fe5b9060200101517f010000000000000000000000000000000000000000000000000000000000000090047f0100000000000000000000000000000000000000000000000000000000000000027effffffffffffffffffffffffffffffffffffffffffffffffffffffffffffff191611155b15611fdd578115611f4f576000861415611f4557612095565b8580600190039650505b600a8302925060308482815181101515611f6557fe5b9060200101517f010000000000000000000000000000000000000000000000000000000000000090047f0100000000000000000000000000000000000000000000000000000000000000027f010000000000000000000000000000000000000000000000000000000000000090040383019250612088565b602e7f010000000000000000000000000000000000000000000000000000000000000002848281518110151561200f57fe5b9060200101517f010000000000000000000000000000000000000000000000000000000000000090047f0100000000000000000000000000000000000000000000000000000000000000027effffffffffffffffffffffffffffffffffffffffffffffffffffffffffffff1916141561208757600191505b5b8080600101915050611dd9565b60008611156120a75785600a0a830292505b8294505050505092915050565b80600990805190602001906120ca9291906120ce565b5050565b828054600181600116156101000203166002900490600052602060002090601f016020900481019282601f1061210f57805160ff191683800117855561213d565b8280016001018555821561213d579182015b8281111561213c578251825591602001919060010190612121565b5b50905061214a9190612162565b5090565b602060405190810160405280600081525090565b61218491905b80821115612180576000816000905550600101612168565b5090565b905600a165627a7a72305820f8a34af6622a535755eeac3ee466860c90628d17118d5b99d5c85ae5cad7cb4b00296060604052341561000f57600080fd5b60405160208061078983398101604052808051906020019091905050336000806101000a81548173ffffffffffffffffffffffffffffffffffffffff021916908373ffffffffffffffffffffffffffffffffffffffff160217905550600073ffffffffffffffffffffffffffffffffffffffff168173ffffffffffffffffffffffffffffffffffffffff16141515156100a757600080fd5b80600160006101000a81548173ffffffffffffffffffffffffffffffffffffffff021916908373ffffffffffffffffffffffffffffffffffffffff1602179055506000600160146101000a81548160ff0219169083600181111561010757fe5b02179055505061066d8061011c6000396000f300606060405260043610610078576000357c0100000000000000000000000000000000000000000000000000000000900463ffffffff1680630221038a1461007d57806343d726d6146100bf578063521eb273146100d45780638da5cb5b14610129578063c19d93fb1461017e578063f2fde38b146101b5575b600080fd5b341561008857600080fd5b6100bd600480803573ffffffffffffffffffffffffffffffffffffffff169060200190919080359060200190919050506101ee565b005b34156100ca57600080fd5b6100d2610335565b005b34156100df57600080fd5b6100e761048e565b604051808273ffffffffffffffffffffffffffffffffffffffff1673ffffffffffffffffffffffffffffffffffffffff16815260200191505060405180910390f35b341561013457600080fd5b61013c6104b4565b604051808273ffffffffffffffffffffffffffffffffffffffff1673ffffffffffffffffffffffffffffffffffffffff16815260200191505060405180910390f35b341561018957600080fd5b6101916104d9565b604051808260018111156101a157fe5b60ff16815260200191505060405180910390f35b34156101c057600080fd5b6101ec600480803573ffffffffffffffffffffffffffffffffffffffff169060200190919050506104ec565b005b6000809054906101000a900473ffffffffffffffffffffffffffffffffffffffff1673ffffffffffffffffffffffffffffffffffffffff163373ffffffffffffffffffffffffffffffffffffffff1614151561024957600080fd5b6000600181111561025657fe5b600160149054906101000a900460ff16600181111561027157fe5b14151561027d57600080fd5b803073ffffffffffffffffffffffffffffffffffffffff1631101515156102a357600080fd5b8173ffffffffffffffffffffffffffffffffffffffff166108fc829081150290604051600060405180830381858888f1935050505015156102e357600080fd5b8173ffffffffffffffffffffffffffffffffffffffff167f33ccbb1a847672ba469a161bc5581011f454d9786281bc5a4d21f3e7a108c57c826040518082815260200191505060405180910390a25050565b6000809054906101000a900473ffffffffffffffffffffffffffffffffffffffff1673ffffffffffffffffffffffffffffffffffffffff163373ffffffffffffffffffffffffffffffffffffffff1614151561039057600080fd5b6000600181111561039d57fe5b600160149054906101000a900460ff1660018111156103b857fe5b1415156103c457600080fd5b60018060146101000a81548160ff021916908360018111156103e257fe5b02179055507f1cdde67b72a90f19919ac732a437ac2f7a10fc128d28c2a6e525d89ce5cd9d3a60405160405180910390a1600160009054906101000a900473ffffffffffffffffffffffffffffffffffffffff1673ffffffffffffffffffffffffffffffffffffffff166108fc3073ffffffffffffffffffffffffffffffffffffffff16319081150290604051600060405180830381858888f19350505050151561048c57600080fd5b565b600160009054906101000a900473ffffffffffffffffffffffffffffffffffffffff1681565b6000809054906101000a900473ffffffffffffffffffffffffffffffffffffffff1681565b600160149054906101000a900460ff1681565b6000809054906101000a900473ffffffffffffffffffffffffffffffffffffffff1673ffffffffffffffffffffffffffffffffffffffff163373ffffffffffffffffffffffffffffffffffffffff1614151561054757600080fd5b600073ffffffffffffffffffffffffffffffffffffffff168173ffffffffffffffffffffffffffffffffffffffff161415151561058357600080fd5b8073ffffffffffffffffffffffffffffffffffffffff166000809054906101000a900473ffffffffffffffffffffffffffffffffffffffff1673ffffffffffffffffffffffffffffffffffffffff167f8be0079c531659141344cd1fd0a4f28419497f9722a3daafe3b4186f6b6457e060405160405180910390a3806000806101000a81548173ffffffffffffffffffffffffffffffffffffffff021916908373ffffffffffffffffffffffffffffffffffffffff160217905550505600a165627a7a72305820ea9f7f88fa3419ea149143c5984fa1849677bff80e54d64c9f6d6ab3958566e60029",
  "source": "pragma solidity ^0.4.18;\n\nimport \"./SafeMath.sol\";\nimport \"./Crowdsale.sol\";\nimport \"./SampleCrowdsaleToken.sol\";\nimport \"./MintedCrowdsale.sol\";\nimport \"./FinalizableCrowdsale.sol\";\nimport \"./TimedCrowdsale.sol\";\nimport \"./Vault.sol\";\nimport \"./oraclizeAPI.sol\";\n// import \"./CappedCrowdsale.sol\";\n// import \"./RefundableCrowdsale.sol\";\n\n\ncontract SampleCrowdsale is MintedCrowdsale, FinalizableCrowdsale, usingOraclize {\n\n    using SafeMath for uint256;\n\n    address _walletRVK = 0x627306090abab3a6e1400e9345bc60c78a8bef57; // Address 0\n    address _walletAK = 0xf17f52151ebef6c7334fad080c5704d77216b732; // 1\n    address _walletISA = 0xc5fdf4076b8f3a5357c5e395ab970b5b54098fef; // 2\n    address _walletEGIL = 0x821aea9a577a9b44299b9c15c88cf3087f3b5544; // 3\n    address _closingADDR = 0x5aeda56215b167893e80b4fe645ba6d5bab767de; // Address 9\n\n    string public weatherInfoRvk;\n\n    event newOraclizeQuery(string description);\n    event newWeatherInfo(string info);\n\n    Vault public vault;\n\n    function SampleCrowdsale\n    (\n        uint256 _openingTime, \n        uint256 _closingTime,\n        uint256 _rate,\n        address _wallet,\n        MintableToken _token\n    ) \n        public\n        Crowdsale(_rate, _wallet, _token)\n        TimedCrowdsale(_openingTime, _closingTime){\n            vault = new Vault(_closingADDR);\n    }\n\n\n    function weiToEth(uint256 amount) returns (uint256)\n    {\n        return amount * 10^18;\n    }\n\n    function weatherReader()\n    {\n        update(); // first check at contract creation\n    }\n\n    function __callback(bytes32 myid, string result)\n    {\n        if (msg.sender != oraclize_cbAddress()) throw;\n\n        newWeatherInfo(result);\n        weatherInfoRvk = result;\n\n        // parseInt(weatherInfoRvk);\n\n        // weatherInfoRvk = weatherInfoRvk.toInt256(); // conversion TODO\n\n        if(parseInt(weatherInfoRvk) > 10)\n        {\n             vault.payOut(_walletRVK, weiToEth(1));\n        }\n    }\n    \n    function update() payable\n    {\n        newOraclizeQuery(\"Oraclize query was sent, standing by for the answer..\");\n        // updates every 60 ----- wind speed m/s from rvk\n        // oraclize_query(60, \"URL\", \"json(http://apis.is/weather/observations/is?stations=1).results.F\");\n        oraclize_query(60, \"URL\", \"json(http://localhost:8081/info.json.results.F\");\n    }\n}\n",
  "sourcePath": "/home/annavigdis/Documents/school/aid-smart-contract/contracts/SampleCrowdsale.sol",
  "compiler": {
    "name": "solc",
    "version": "0.4.19+commit.c4cbbb05.Emscripten.clang"
  },
  "schemaVersion": "1.0.1",
  "updatedAt": "2018-05-01T18:12:04.781Z"
}